:100AA0000B3736303030313135303030380C084D7E
:100AB000616E616E20446F736869000B433630309D
:100AC00030313135303031300C1452616A6174206C
:100AD000446F736869000B4E363030303131353039
:100AE0003034390C204D6F6E696361205368616842
:010AF0000005
:100AF200759850758930758DFDD28EE4F542209837
:100B020009742C2542F8A69980F4742C2542F8E643
:100B1200F5993099FD0542E542B40AE212080080D7
:010B2200DAF8
:10080000E52DB430047F0180027F00E52CB436046E
:100810007E0180027E00EE5FFFE52EB430047E0193
:1008200080027E00EE5FFFE52FB430047E0180027F
:100830007E00EE5FFFE530B431047E0180027E0071
:10084000EE5FFFE531B431047E0180027E00EE5F91
:10085000FFE532B435047E0180027E00EE5FFFE5E5
:1008600033B430047E0180027E00EE5FFFE534B4D5
:1008700030047E0180027E00EE5FFFE535B4300477
:100880007E0180027E00EE5FFFE536B438047E0113
:1008900080027E00EE5F6019E4F54274082542F89C
:1008A000E6F599209904C29980F90542E542B40A17
:1008B000EAE52DB430047F0180027F00E52CB436D8
:1008C000047E0180027E00EE5FFFE52EB430047EE0
:1008D0000180027E00EE5FFFE52FB430047E0180D0
:1008E000027E00EE5FFFE530B431047E0180027EBF
:1008F00000EE5FFFE531B431047E0180027E00EE40
:100900005FFFE532B435047E0180027E00EE5FFFBA
:10091000E533B430047E0180027E00EE5FFFE534F3
:10092000B430047E0180027E00EE5FFFE535B43115
:10093000047E0180027E00EE5FFFE536B430047E67
:100940000180027E00EE5F6019E4F54274142542D6
:10095000F8E6F599209904C29980F90542E542B478
:100960000AEAE52DB430047F0180027F00E52CB453
:1009700036047E0180027E00EE5FFFE52EB4300477
:100980007E0180027E00EE5FFFE52FB430047E0121
:1009900080027E00EE5FFFE530B431047E0180020C
:1009A0007E00EE5FFFE531B431047E0180027E00FF
:1009B000EE5FFFE532B435047E0180027E00EE5F1B
:1009C000FFE533B430047E0180027E00EE5FFFE578
:1009D00034B430047E0180027E00EE5FFFE535B462
:1009E00034047E0180027E00EE5FFFE536B43904F8
:1009F0007E0180027E00EE5F6019E4F542742025DE
:100A000042F8E6F599209904C29980F90542E54239
:040A1000B40AEA2218
:03000000020A14DD
:0C0A1400787FE4F6D8FD758158020A5B7B
:100A2000020AF2E493A3F8E493A34003F68001F2F0
:100A300008DFF48029E493A3F85407240CC8C333D7
:100A4000C4540F4420C8834004F456800146F6DFA6
:100A5000E4800B0102040810204080900AA0E47E8C
:100A6000019360BCA3FF543F30E509541FFEE4939B
:100A7000A360010ECF54C025E060A840B8E493A362
:100A8000FAE493A3F8E493A3C8C582C8CAC583CA8D
:100A9000F0A3C8C582C8CAC583CADFE9DEE780BE45
:010AF1000004
:00000001FF
